{
  "transactions": [
    {
      "hash": "0x03c49d8cad3f5d90ad058009d1aac92428a43fa05734316a3e0766e11bede693",
      "transactionType": "CREATE",
      "contractName": "MockERC20",
      "contractAddress": "0x26900c49be10722cae58411d25f2250a9e506294",
      "function": null,
      "arguments": [
        "Test WETH",
        "tWETH",
        "18"
      ],
      "transaction": {
        "from": "0xf2f8741dc50b94367284b7bac888f5c5dd8a237d",
        "gas": "0xe1b44",
        "value": "0x0",
        "input": "0x60e0806040523461040657610f8b803803809161001c828561040a565b83398101906060818303126104065780516001600160401b038111610406578261004791830161042d565b60208201519092906001600160401b0381116104065760409161006b91840161042d565b91015160ff811681036104065782516001600160401b038111610337576100925f54610482565b601f81116103b7575b506020601f821160011461035657819293945f9261034b575b50508160011b915f199060031b1c1916175f555b81516001600160401b038111610337576100e3600154610482565b601f81116102d4575b50602092601f821160011461027357928192935f92610268575b50508160011b915f199060031b1c1916176001555b6080524660a0526040515f905f54918161013484610482565b9182825260208201946001811690815f1461024c5750600114610202575b61015e9250038261040a565b51902060405160208101917f8b73c3c69bb8fe3d512ecc4cf759cc79239f7b179b0ffacaa9a75d522b39400f835260408201527fc89efdaa54c0f20c7adf612882df0950f5a951637e0307cdcb4c672f298b8bc660608201524660808201523060a082015260a081526101d260c08261040a565b51902060c052604051610ab090816104bb8239608051816105e3015260a051816108e3015260c051816109090152f35b505f80805290915f80516020610f6b8339815191525b81831061023057505090602061015e92820101610152565b6020919350806001915483858801015201910190918392610218565b60ff191686525061015e92151560051b82016020019050610152565b015190505f80610106565b601f1982169360015f52805f20915f5b8681106102bc57508360019596106102a4575b505050811b0160015561011b565b01515f1960f88460031b161c191690555f8080610296565b91926020600181928685015181550194019201610283565b60015f527fb10e2d527612073b26eecdfd717e6a320cf44b4afac2b0732d9fcbe2b7fa0cf6601f830160051c8101916020841061032d575b601f0160051c01905b81811061032257506100ec565b5f8155600101610315565b909150819061030c565b634e487b7160e01b5f52604160045260245ffd5b015190505f806100b4565b601f198216905f8052805f20915f5b81811061039f57509583600195969710610387575b505050811b015f556100c8565b01515f1960f88460031b161c191690555f808061037a565b9192602060018192868b015181550194019201610365565b5f80525f80516020610f6b833981519152601f830160051c810191602084106103fc575b601f0160051c01905b8181106103f1575061009b565b5f81556001016103e4565b90915081906103db565b5f80fd5b601f909101601f19168101906001600160401b0382119082101761033757604052565b81601f82011215610406578051906001600160401b0382116103375760405192610461601f8401601f19166020018561040a565b8284526020838301011161040657815f9260208093018386015e8301015290565b90600182811c921680156104b0575b602083101461049c57565b634e487b7160e01b5f52602260045260245ffd5b91607f169161049156fe60806040526004361015610011575f80fd5b5f3560e01c806306fdde031461076d578063095ea7b3146106f457806318160ddd146106d757806323b872dd14610607578063313ce567146105ca5780633644e515146105a857806340c10f191461053057806370a08231146104f85780637ecebe00146104c057806395d89b41146103e65780639dc29fac14610386578063a9059cbb14610311578063d505accf146101075763dd62ed3e146100b3575f80fd5b34610103576040366003190112610103576100cc6108a7565b6100d46108bd565b6001600160a01b039182165f908152600460209081526040808320949093168252928352819020549051908152f35b5f80fd5b346101035760e0366003190112610103576101206108a7565b6101286108bd565b6044356064359260843560ff8116809103610103574285106102cc5760805f916020936101536108e0565b9060018060a01b03169687855260058652604085209889549960018b01905560405190878201927f6e71edae12b1b97f4d1f60370fef10105fa2faae0126114a169c64845d6126c984528a604084015260018060a01b03169a8b6060840152898784015260a083015260c082015260c081526101d060e082610847565b519020604051908682019261190160f01b845260228301526042820152604281526101fc606282610847565b519020906040519182528482015260a435604082015260c435606082015282805260015afa156102c1575f516001600160a01b0316801515806102b8575b15610282577f8c5be1e5ebec7d5bd14f71427d1e84f3dd0314c0f7b2291e5b200ac8c7c3b925916020915f526004825260405f20855f5282528060405f2055604051908152a3005b60405162461bcd60e51b815260206004820152600e60248201526d24a72b20a624a22fa9a4a3a722a960911b6044820152606490fd5b5082811461023a565b6040513d5f823e3d90fd5b60405162461bcd60e51b815260206004820152601760248201527f5045524d49545f444541444c494e455f455850495245440000000000000000006044820152606490fd5b346101035760403660031901126101035761032a6108a7565b60243590335f52600360205260405f206103458382546108d3565b905560018060a01b031690815f52600360205260405f208181540190556040519081525f80516020610a5b83398151915260203392a3602060405160018152f35b34610103576040366003190112610103575f6103a06108a7565b5f80516020610a5b83398151915260206024359260018060a01b03169283855260038252604085206103d38282546108d3565b90558060025403600255604051908152a3005b34610103575f366003190112610103576040515f6001546104068161080f565b808452906001811690811561049c575060011461043e575b61043a8361042e81850382610847565b6040519182918261087d565b0390f35b60015f9081527fb10e2d527612073b26eecdfd717e6a320cf44b4afac2b0732d9fcbe2b7fa0cf6939250905b8082106104825750909150810160200161042e61041e565b91926001816020925483858801015201910190929161046a565b60ff191660208086019190915291151560051b8401909101915061042e905061041e565b34610103576020366003190112610103576001600160a01b036104e16108a7565b165f526005602052602060405f2054604051908152f35b34610103576020366003190112610103576001600160a01b036105196108a7565b165f526003602052602060405f2054604051908152f35b34610103576040366003190112610103576105496108a7565b60243590600254908282018092116105945760205f80516020610a5b833981519152915f9360025560018060a01b0316938484526003825260408420818154019055604051908152a3005b634e487b7160e01b5f52601160045260245ffd5b34610103575f3660031901126101035760206105c26108e0565b604051908152f35b34610103575f36600319011261010357602060405160ff7f0000000000000000000000000000000000000000000000000000000000000000168152f35b34610103576060366003190112610103576106206108a7565b6106286108bd565b6001600160a01b039091165f818152600460209081526040808320338452825290912054604435935f80516020610a5b833981519152929185600182016106b2575b5050835f526003825260405f206106828682546108d3565b90556001600160a01b03165f818152600383526040908190208054870190555194855293a3602060405160018152f35b6106bb916108d3565b5f8581526004845260408082203383528552902055858561066a565b34610103575f366003190112610103576020600254604051908152f35b346101035760403660031901126101035761070d6108a7565b335f8181526004602090815260408083206001600160a01b03909516808452948252918290206024359081905591519182527f8c5be1e5ebec7d5bd14f71427d1e84f3dd0314c0f7b2291e5b200ac8c7c3b92591a3602060405160018152f35b34610103575f366003190112610103576040515f805461078c8161080f565b808452906001811690811561049c57506001146107b35761043a8361042e81850382610847565b5f8080527f290decd9548b62a8d60345a988386fc84ba6bc95484008f6362f93160ef3e563939250905b8082106107f55750909150810160200161042e61041e565b9192600181602092548385880101520191019092916107dd565b90600182811c9216801561083d575b602083101461082957565b634e487b7160e01b5f52602260045260245ffd5b91607f169161081e565b90601f8019910116810190811067ffffffffffffffff82111761086957604052565b634e487b7160e01b5f52604160045260245ffd5b602060409281835280519182918282860152018484015e5f828201840152601f01601f1916010190565b600435906001600160a01b038216820361010357565b602435906001600160a01b038216820361010357565b9190820391821161059457565b467f00000000000000000000000000000000000000000000000000000000000000000361092b577f000000000000000000000000000000000000000000000000000000000000000090565b6040515f905f54918161093d8461080f565b9182825260208201946001811690815f14610a3e57506001146109e1575b61096792500382610847565b51902060405160208101917f8b73c3c69bb8fe3d512ecc4cf759cc79239f7b179b0ffacaa9a75d522b39400f835260408201527fc89efdaa54c0f20c7adf612882df0950f5a951637e0307cdcb4c672f298b8bc660608201524660808201523060a082015260a081526109db60c082610847565b51902090565b505f80805290917f290decd9548b62a8d60345a988386fc84ba6bc95484008f6362f93160ef3e5635b818310610a225750509060206109679282010161095b565b6020919350806001915483858801015201910190918392610a0a565b60ff191686525061096792151560051b8201602001905061095b56feddf252ad1be2c89b69c2b068fc378daa952ba7f163c4a11628f55a4df523b3efa2646970667358221220a3a5d51ba18dd034fdc3ecbf23b51b6b3ff1aa293497450edbaf8cf46631614164736f6c634300081a0033290decd9548b62a8d60345a988386fc84ba6bc95484008f6362f93160ef3e563000000000000000000000000000000000000000000000000000000000000006000000000000000000000000000000000000000000000000000000000000000a000000000000000000000000000000000000000000000000000000000000000120000000000000000000000000000000000000000000000000000000000000009546573742057455448000000000000000000000000000000000000000000000000000000000000000000000000000000000000000000000000000000000000057457455448000000000000000000000000000000000000000000000000000000",
        "nonce": "0x5d",
        "chainId": "0xaa36a7"
      },
      "additionalContracts": [],
      "isFixedGasLimit": false
    },
    {
      "hash": "0x6981a13d6360a3e3a5370b3e559151a54829001910fb54744bf89216c22b4c5e",
      "transactionType": "CALL",
      "contractName": "MockERC20",
      "contractAddress": "0x26900c49be10722cae58411d25f2250a9e506294",
      "function": "mint(address,uint256)",
      "arguments": [
        "0xF2F8741Dc50B94367284B7Bac888f5c5dd8a237d",
        "100000000000000000000"
      ],
      "transaction": {
        "from": "0xf2f8741dc50b94367284b7bac888f5c5dd8a237d",
        "to": "0x26900c49be10722cae58411d25f2250a9e506294",
        "gas": "0x16fa8",
        "value": "0x0",
        "input": "0x40c10f19000000000000000000000000f2f8741dc50b94367284b7bac888f5c5dd8a237d0000000000000000000000000000000000000000000000056bc75e2d63100000",
        "nonce": "0x5e",
        "chainId": "0xaa36a7"
      },
      "additionalContracts": [],
      "isFixedGasLimit": false
    },
    {
      "hash": "0x1a8aa29c6f5f9c05e712212a3843ff78ee64fc94546572b629555f8981c7fd41",
      "transactionType": "CALL",
      "contractName": null,
      "contractAddress": "0xe03a1074c86cfedd5c142c4f04f1a1536e203543",
      "function": "initialize((address,address,uint24,int24,address),uint160)",
      "arguments": [
        "(0x26900C49Be10722CaE58411D25F2250a9e506294, 0x3338Eb9ED1aEC4E61Ec8a30fE7c092D51063b000, 3000, 60, 0xC260dA58b3C1433e4294b72B3420002604009540)",
        "1947050763349350544242658690252763"
      ],
      "transaction": {
        "from": "0xf2f8741dc50b94367284b7bac888f5c5dd8a237d",
        "to": "0xe03a1074c86cfedd5c142c4f04f1a1536e203543",
        "gas": "0x2c9e3",
        "value": "0x0",
        "input": "0x6276cbbe00000000000000000000000026900c49be10722cae58411d25f2250a9e5062940000000000000000000000003338eb9ed1aec4e61ec8a30fe7c092d51063b0000000000000000000000000000000000000000000000000000000000000000bb8000000000000000000000000000000000000000000000000000000000000003c000000000000000000000000c260da58b3c1433e4294b72b34200026040095400000000000000000000000000000000000005fff3c531962481c82e8ccb0bfdb",
        "nonce": "0x5f",
        "chainId": "0xaa36a7"
      },
      "additionalContracts": [],
      "isFixedGasLimit": false
    },
    {
      "hash": "0xe960f3ff5ba79a01e47d7b6cf6630ef964c424ce7911575e2c50bbcf70a53e3f",
      "transactionType": "CALL",
      "contractName": null,
      "contractAddress": "0xf75bc5a5e7e16d1152bb7cab31a2a4ae66e29d68",
      "function": "syncCapacity(bytes32)",
      "arguments": [
        "0xefdad8261dac07455d6ba370fc4ece8289a0de9a0653087b9dd432167eaeb6e7"
      ],
      "transaction": {
        "from": "0xf2f8741dc50b94367284b7bac888f5c5dd8a237d",
        "to": "0xf75bc5a5e7e16d1152bb7cab31a2a4ae66e29d68",
        "gas": "0x136c2",
        "value": "0x0",
        "input": "0xf2118272efdad8261dac07455d6ba370fc4ece8289a0de9a0653087b9dd432167eaeb6e7",
        "nonce": "0x60",
        "chainId": "0xaa36a7"
      },
      "additionalContracts": [],
      "isFixedGasLimit": false
    }
  ],
  "receipts": [
    {
      "status": "0x1",
      "cumulativeGasUsed": "0x53c6fc",
      "logs": [],
      "logsBloom": "0x00000000000000000000000000000000000000000000000000000000000000000000000000000000000000000000000000000000000000000000000000000000000000000000000000000000000000000000000000000000000000000000000000000000000000000000000000000000000000000000000000000000000000000000000000000000000000000000000000000000000000000000000000000000000000000000000000000000000000000000000000000000000000000000000000000000000000000000000000000000000000000000000000000000000000000000000000000000000000000000000000000000000000000000000000000000",
      "type": "0x2",
      "transactionHash": "0x6981a13d6360a3e3a5370b3e559151a54829001910fb54744bf89216c22b4c5e",
      "transactionIndex": "0x33",
      "blockHash": "0x8a9f9664b946737fd49143d807d42c8b95f655d3efcbe5ead812927c3e021125",
      "blockNumber": "0x9f976b",
      "gasUsed": "0xad9e6",
      "effectiveGasPrice": "0xf424a",
      "from": "0xf2f8741dc50b94367284b7bac888f5c5dd8a237d",
      "to": null,
      "contractAddress": "0x26900c49be10722cae58411d25f2250a9e506294"
    },
    {
      "status": "0x1",
      "cumulativeGasUsed": "0x80be1e",
      "logs": [
        {
          "address": "0x26900c49be10722cae58411d25f2250a9e506294",
          "topics": [
            "0xddf252ad1be2c89b69c2b068fc378daa952ba7f163c4a11628f55a4df523b3ef",
            "0x0000000000000000000000000000000000000000000000000000000000000000",
            "0x000000000000000000000000f2f8741dc50b94367284b7bac888f5c5dd8a237d"
          ],
          "data": "0x0000000000000000000000000000000000000000000000056bc75e2d63100000",
          "blockHash": "0x8a9f9664b946737fd49143d807d42c8b95f655d3efcbe5ead812927c3e021125",
          "blockNumber": "0x9f976b",
          "blockTimestamp": "0x69b841d8",
          "transactionHash": "0x03c49d8cad3f5d90ad058009d1aac92428a43fa05734316a3e0766e11bede693",
          "transactionIndex": "0x45",
          "logIndex": "0xa7",
          "removed": false
        }
      ],
      "logsBloom": "0x00000000000000000100000000000000000000000000000000000000000000000000000010000000000000000000000000000000000000000000000000000000000000000000000000000008000000000000000000000800000000000000000000000000020000000000000000000800000000000000000000000010000000000000000000000000000000000000000000000000000000000000000000000000000000000000001000000000000400000000000000000000000000040000000000000002000000000000000000000000000000000000000000000000000020000000000000000000000000000000000000000000000000000000000000000000",
      "type": "0x2",
      "transactionHash": "0x03c49d8cad3f5d90ad058009d1aac92428a43fa05734316a3e0766e11bede693",
      "transactionIndex": "0x45",
      "blockHash": "0x8a9f9664b946737fd49143d807d42c8b95f655d3efcbe5ead812927c3e021125",
      "blockNumber": "0x9f976b",
      "gasUsed": "0x10a2e",
      "effectiveGasPrice": "0xf424a",
      "from": "0xf2f8741dc50b94367284b7bac888f5c5dd8a237d",
      "to": "0x26900c49be10722cae58411d25f2250a9e506294",
      "contractAddress": null
    },
    {
      "status": "0x1",
      "cumulativeGasUsed": "0x8a6843",
      "logs": [
        {
          "address": "0xe03a1074c86cfedd5c142c4f04f1a1536e203543",
          "topics": [
            "0xdd466e674ea557f56295e2d0218a125ea4b4f0f6f3307b95f85e6110838d6438",
            "0xefdad8261dac07455d6ba370fc4ece8289a0de9a0653087b9dd432167eaeb6e7",
            "0x00000000000000000000000026900c49be10722cae58411d25f2250a9e506294",
            "0x0000000000000000000000003338eb9ed1aec4e61ec8a30fe7c092d51063b000"
          ],
          "data": "0x0000000000000000000000000000000000000000000000000000000000000bb8000000000000000000000000000000000000000000000000000000000000003c000000000000000000000000c260da58b3c1433e4294b72b34200026040095400000000000000000000000000000000000005fff3c531962481c82e8ccb0bfdb00000000000000000000000000000000000000000000000000000000000315d8",
          "blockHash": "0x8a9f9664b946737fd49143d807d42c8b95f655d3efcbe5ead812927c3e021125",
          "blockNumber": "0x9f976b",
          "blockTimestamp": "0x69b841d8",
          "transactionHash": "0x1a8aa29c6f5f9c05e712212a3843ff78ee64fc94546572b629555f8981c7fd41",
          "transactionIndex": "0x47",
          "logIndex": "0xaa",
          "removed": false
        },
        {
          "address": "0xc260da58b3c1433e4294b72b3420002604009540",
          "topics": [
            "0x6e5dd77404b43217ac445148f0522768fa8f19ab82b5db219c0bb39d323ecd34",
            "0xefdad8261dac07455d6ba370fc4ece8289a0de9a0653087b9dd432167eaeb6e7"
          ],
          "data": "0x00000000000000000000000000000000000000000000000000000000000000010000000000000000000000000000000000000000000000000000000069b841d8",
          "blockHash": "0x8a9f9664b946737fd49143d807d42c8b95f655d3efcbe5ead812927c3e021125",
          "blockNumber": "0x9f976b",
          "blockTimestamp": "0x69b841d8",
          "transactionHash": "0x1a8aa29c6f5f9c05e712212a3843ff78ee64fc94546572b629555f8981c7fd41",
          "transactionIndex": "0x47",
          "logIndex": "0xab",
          "removed": false
        }
      ],
      "logsBloom": "0x00000000000001100000000000000000820000000000000000000000000000200000000000000000000000000000000000000100000000000000000000000000000000040000000000000000000000000000000000000000000000000000000000000002000000000000000000000000000000001000100000000000000000000000000000000008000000000000000000300001000000000000000000200000000000000800000000800000000000000000000000000000000040000000000000000000000400000000000000000000000000000000000000200000000000001000000000000000000000000000000000000000000000000000000000000000",
      "type": "0x2",
      "transactionHash": "0x1a8aa29c6f5f9c05e712212a3843ff78ee64fc94546572b629555f8981c7fd41",
      "transactionIndex": "0x47",
      "blockHash": "0x8a9f9664b946737fd49143d807d42c8b95f655d3efcbe5ead812927c3e021125",
      "blockNumber": "0x9f976b",
      "gasUsed": "0x1e821",
      "effectiveGasPrice": "0xf424a",
      "from": "0xf2f8741dc50b94367284b7bac888f5c5dd8a237d",
      "to": "0xe03a1074c86cfedd5c142c4f04f1a1536e203543",
      "contractAddress": null
    },
    {
      "status": "0x1",
      "cumulativeGasUsed": "0x930b44",
      "logs": [
        {
          "address": "0xf75bc5a5e7e16d1152bb7cab31a2a4ae66e29d68",
          "topics": [
            "0x3f787c393cc011fbdf9c74ba5890a2e15f27943415f6697701a84f731bf9b709",
            "0xefdad8261dac07455d6ba370fc4ece8289a0de9a0653087b9dd432167eaeb6e7"
          ],
          "data": "0x0000000000000000000000000000000000000000000000000000000ba43b7400",
          "blockHash": "0x8a9f9664b946737fd49143d807d42c8b95f655d3efcbe5ead812927c3e021125",
          "blockNumber": "0x9f976b",
          "blockTimestamp": "0x69b841d8",
          "transactionHash": "0xe960f3ff5ba79a01e47d7b6cf6630ef964c424ce7911575e2c50bbcf70a53e3f",
          "transactionIndex": "0x49",
          "logIndex": "0xae",
          "removed": false
        }
      ],
      "logsBloom": "0x00000000000000100000000000000000800000000000000000000000000000200000000000000000000000000000000000000000000000000000000000000002000000000000000004000000000000010000000000000004000000000000000000000000000000000000000000000000000000000000000000000000000000000000000000000000000000000000000000000000000000000000000000000000000000000000000000000000000000000000000000000000000000000000000000000000000000000000000000000000000000000000000000000000000000000000000000000000000000000000000000400000000000000000000000004000",
      "type": "0x2",
      "transactionHash": "0xe960f3ff5ba79a01e47d7b6cf6630ef964c424ce7911575e2c50bbcf70a53e3f",
      "transactionIndex": "0x49",
      "blockHash": "0x8a9f9664b946737fd49143d807d42c8b95f655d3efcbe5ead812927c3e021125",
      "blockNumber": "0x9f976b",
      "gasUsed": "0xe0fd",
      "effectiveGasPrice": "0xf424a",
      "from": "0xf2f8741dc50b94367284b7bac888f5c5dd8a237d",
      "to": "0xf75bc5a5e7e16d1152bb7cab31a2a4ae66e29d68",
      "contractAddress": null
    }
  ],
  "libraries": [],
  "pending": [],
  "returns": {},
  "timestamp": 1773683158607,
  "chain": 11155111,
  "commit": "0f1933a"
}